{
  "contractName": "Election",
  "abi": [
    {
      "constant": true,
      "inputs": [],
      "name": "candidatesCount",
      "outputs": [
        {
          "name": "",
          "type": "uint256"
        }
      ],
      "payable": false,
      "stateMutability": "view",
      "type": "function"
    },
    {
      "constant": true,
      "inputs": [
        {
          "name": "",
          "type": "uint256"
        }
      ],
      "name": "candidates",
      "outputs": [
        {
          "name": "id",
          "type": "uint256"
        },
        {
          "name": "name",
          "type": "string"
        },
        {
          "name": "voteCount",
          "type": "uint256"
        }
      ],
      "payable": false,
      "stateMutability": "view",
      "type": "function"
    },
    {
      "constant": true,
      "inputs": [],
      "name": "candidate",
      "outputs": [
        {
          "name": "",
          "type": "string"
        }
      ],
      "payable": false,
      "stateMutability": "view",
      "type": "function"
    },
    {
      "constant": true,
      "inputs": [
        {
          "name": "",
          "type": "address"
        }
      ],
      "name": "voters",
      "outputs": [
        {
          "name": "",
          "type": "bool"
        }
      ],
      "payable": false,
      "stateMutability": "view",
      "type": "function"
    },
    {
      "inputs": [],
      "payable": false,
      "stateMutability": "nonpayable",
      "type": "constructor"
    },
    {
      "constant": false,
      "inputs": [
        {
          "name": "_aadhaar",
          "type": "uint256"
        }
      ],
      "name": "addAccount",
      "outputs": [
        {
          "name": "",
          "type": "uint256"
        }
      ],
      "payable": false,
      "stateMutability": "nonpayable",
      "type": "function"
    },
    {
      "constant": true,
      "inputs": [
        {
          "name": "_aadhaar",
          "type": "uint256"
        }
      ],
      "name": "getAccount",
      "outputs": [
        {
          "name": "",
          "type": "uint256"
        }
      ],
      "payable": false,
      "stateMutability": "view",
      "type": "function"
    },
    {
      "constant": false,
      "inputs": [
        {
          "name": "_candidateId",
          "type": "uint256"
        }
      ],
      "name": "vote",
      "outputs": [],
      "payable": false,
      "stateMutability": "nonpayable",
      "type": "function"
    }
  ],
  "bytecode": "0x60806040526000600255600060045534801561001a57600080fd5b506100686040805190810160405280600681526020017f427279736f6e00000000000000000000000000000000000000000000000000008152506100ba640100000000026401000000009004565b6100b56040805190810160405280600981526020017f53696464617274686100000000000000000000000000000000000000000000008152506100ba640100000000026401000000009004565b6101dc565b60046000815480929190600101919050555060606040519081016040528060045481526020018281526020016000815250600360006004548152602001908152602001600020600082015181600001556020820151816001019080519060200190610126929190610137565b506040820151816002015590505050565b828054600181600116156101000203166002900490600052602060002090601f016020900481019282601f1061017857805160ff19168380011785556101a6565b828001600101855582156101a6579182015b828111156101a557825182559160200191906001019061018a565b5b5090506101b391906101b7565b5090565b6101d991905b808211156101d55760008160009055506001016101bd565b5090565b90565b610717806101eb6000396000f3fe608060405260043610610083576000357c0100000000000000000000000000000000000000000000000000000000900463ffffffff1680630121b93f146100885780632d35a8a2146100c35780633477ee2e146100ee5780636c8381f8146101b057806399fc9d7a14610240578063a3ec138d1461028f578063ce88b145146102f8575b600080fd5b34801561009457600080fd5b506100c1600480360360208110156100ab57600080fd5b8101908080359060200190929190505050610347565b005b3480156100cf57600080fd5b506100d8610510565b6040518082815260200191505060405180910390f35b3480156100fa57600080fd5b506101276004803603602081101561011157600080fd5b8101908080359060200190929190505050610516565b6040518084815260200180602001838152602001828103825284818151815260200191508051906020019080838360005b83811015610173578082015181840152602081019050610158565b50505050905090810190601f1680156101a05780820380516001836020036101000a031916815260200191505b5094505050505060405180910390f35b3480156101bc57600080fd5b506101c56105d8565b6040518080602001828103825283818151815260200191508051906020019080838360005b838110156102055780820151818401526020810190506101ea565b50505050905090810190601f1680156102325780820380516001836020036101000a031916815260200191505b509250505060405180910390f35b34801561024c57600080fd5b506102796004803603602081101561026357600080fd5b8101908080359060200190929190505050610676565b6040518082815260200191505060405180910390f35b34801561029b57600080fd5b506102de600480360360208110156102b257600080fd5b81019080803573ffffffffffffffffffffffffffffffffffffffff1690602001909291905050506106ae565b604051808215151515815260200191505060405180910390f35b34801561030457600080fd5b506103316004803603602081101561031b57600080fd5b81019080803590602001909291905050506106ce565b6040518082815260200191505060405180910390f35b600560003373ffffffffffffffffffffffffffffffffffffffff1673ffffffffffffffffffffffffffffffffffffffff16815260200190815260200160002060009054906101000a900460ff16151515610409576040517f08c379a000000000000000000000000000000000000000000000000000000000815260040180806020018281038252601f8152602001807f566f7465722068617320616c726561647920636173742068697320766f74650081525060200191505060405180910390fd5b60008111801561041b57506004548111155b151561048f576040517f08c379a00000000000000000000000000000000000000000000000000000000081526004018080602001828103825260118152602001807f496e76616c69642063616e64696461746500000000000000000000000000000081525060200191505060405180910390fd5b6001600560003373ffffffffffffffffffffffffffffffffffffffff1673ffffffffffffffffffffffffffffffffffffffff16815260200190815260200160002060006101000a81548160ff021916908315150217905550600360008281526020019081526020016000206002016000815480929190600101919050555050565b60045481565b6003602052806000526040600020600091509050806000015490806001018054600181600116156101000203166002900480601f0160208091040260200160405190810160405280929190818152602001828054600181600116156101000203166002900480156105c85780601f1061059d576101008083540402835291602001916105c8565b820191906000526020600020905b8154815290600101906020018083116105ab57829003601f168201915b5050505050908060020154905083565b60008054600181600116156101000203166002900480601f01602080910402602001604051908101604052809291908181526020018280546001816001161561010002031660029004801561066e5780601f106106435761010080835404028352916020019161066e565b820191906000526020600020905b81548152906001019060200180831161065157829003601f168201915b505050505081565b600060026000815480929190600101919050555060025460016000848152602001908152602001600020819055506002549050919050565b60056020528060005260406000206000915054906101000a900460ff1681565b60006001600083815260200190815260200160002054905091905056fea165627a7a72305820700031f748c85a29eb910e33787f2e960b2fa28c6c36bd0a74e35d2ea12bd6ff0029",
  "source": "pragma solidity ^0.5.0;\n\ncontract Election\n{\n    // Read/write candidate\n    string public candidate;\n\n    struct Candidate\n    {\n        uint id;\n        string name;\n        uint voteCount;\n    }\n\n    // Mapping from Aadhaar to account ID\n    mapping(uint => uint) private accounts;\n    uint private accountsCount = 0;\n\n    mapping(uint => Candidate) public candidates;\n    uint public candidatesCount = 0;\n\n    mapping(address => bool) public voters;\n\n    // Constructor\n    constructor() public\n    {\n        addCandidate(\"Bryson\");\n        addCandidate(\"Siddartha\");\n    }\n\n    function addCandidate (string memory _name) private\n    {\n        candidatesCount++;\n        candidates[candidatesCount] = Candidate(candidatesCount, _name, 0);\n    }\n\n    function addAccount (uint _aadhaar) public returns (uint)\n    {\n        accountsCount++;\n        accounts[_aadhaar] = accountsCount;\n        return accountsCount;\n    }\n\n    function getAccount (uint _aadhaar) public view returns (uint)\n    {\n        return accounts[_aadhaar];\n    }\n\n    function vote (uint _candidateId) public\n    {\n        // require that they haven't voted before\n        require(!voters[msg.sender], \"Voter has already cast his vote\");\n\n        // require a valid candidate\n        require(_candidateId > 0 && _candidateId <= candidatesCount, \"Invalid candidate\");\n\n        // record that voter has voted\n        voters[msg.sender] = true;\n\n        // update candidate vote Count\n        candidates[_candidateId].voteCount++;\n    }\n}",
  "sourcePath": "/home/tyrion/codefundo/HelloBlockchain/contracts/Election.sol",
  "compiler": {
    "name": "solc",
    "version": "0.5.0+commit.1d4f565a.Emscripten.clang"
  },
  "schemaVersion": "3.0.12",
  "updatedAt": "2019-08-21T16:30:34.376Z",
  "devdoc": {
    "methods": {}
  },
  "userdoc": {
    "methods": {}
  }
}